{
  "_format": "hh-sol-artifact-1",
  "contractName": "Game",
  "sourceName": "contracts/Game.sol",
  "abi": [
    {
      "inputs": [],
      "stateMutability": "payable",
      "type": "constructor"
    },
    {
      "inputs": [
        {
          "internalType": "address",
          "name": "have",
          "type": "address"
        },
        {
          "internalType": "address",
          "name": "want",
          "type": "address"
        }
      ],
      "name": "OnlyCoordinatorCanFulfill",
      "type": "error"
    },
    {
      "anonymous": false,
      "inputs": [
        {
          "indexed": true,
          "internalType": "address",
          "name": "from",
          "type": "address"
        },
        {
          "indexed": false,
          "internalType": "uint256",
          "name": "value",
          "type": "uint256"
        }
      ],
      "name": "Deposit",
      "type": "event"
    },
    {
      "anonymous": false,
      "inputs": [
        {
          "indexed": true,
          "internalType": "address",
          "name": "player",
          "type": "address"
        },
        {
          "indexed": false,
          "internalType": "bool",
          "name": "isWin",
          "type": "bool"
        }
      ],
      "name": "GameFulfilled",
      "type": "event"
    },
    {
      "anonymous": false,
      "inputs": [
        {
          "indexed": false,
          "internalType": "uint256",
          "name": "requestId",
          "type": "uint256"
        },
        {
          "indexed": false,
          "internalType": "address",
          "name": "player",
          "type": "address"
        }
      ],
      "name": "GameStarted",
      "type": "event"
    },
    {
      "anonymous": false,
      "inputs": [
        {
          "indexed": true,
          "internalType": "address",
          "name": "from",
          "type": "address"
        },
        {
          "indexed": true,
          "internalType": "address",
          "name": "to",
          "type": "address"
        }
      ],
      "name": "OwnershipTransferRequested",
      "type": "event"
    },
    {
      "anonymous": false,
      "inputs": [
        {
          "indexed": true,
          "internalType": "address",
          "name": "from",
          "type": "address"
        },
        {
          "indexed": true,
          "internalType": "address",
          "name": "to",
          "type": "address"
        }
      ],
      "name": "OwnershipTransferred",
      "type": "event"
    },
    {
      "anonymous": false,
      "inputs": [
        {
          "indexed": false,
          "internalType": "uint256",
          "name": "requestId",
          "type": "uint256"
        },
        {
          "indexed": false,
          "internalType": "uint256[]",
          "name": "randomWords",
          "type": "uint256[]"
        }
      ],
      "name": "RequestFulfilled",
      "type": "event"
    },
    {
      "anonymous": false,
      "inputs": [
        {
          "indexed": false,
          "internalType": "uint256",
          "name": "requestId",
          "type": "uint256"
        },
        {
          "indexed": false,
          "internalType": "uint32",
          "name": "numWords",
          "type": "uint32"
        }
      ],
      "name": "RequestSent",
      "type": "event"
    },
    {
      "anonymous": false,
      "inputs": [
        {
          "indexed": true,
          "internalType": "address",
          "name": "to",
          "type": "address"
        },
        {
          "indexed": false,
          "internalType": "uint256",
          "name": "value",
          "type": "uint256"
        }
      ],
      "name": "Withdraw",
      "type": "event"
    },
    {
      "inputs": [],
      "name": "acceptOwnership",
      "outputs": [],
      "stateMutability": "nonpayable",
      "type": "function"
    },
    {
      "inputs": [
        {
          "internalType": "address",
          "name": "account",
          "type": "address"
        }
      ],
      "name": "balanceOf",
      "outputs": [
        {
          "internalType": "uint256",
          "name": "",
          "type": "uint256"
        }
      ],
      "stateMutability": "view",
      "type": "function"
    },
    {
      "inputs": [],
      "name": "callbackGasLimit",
      "outputs": [
        {
          "internalType": "uint32",
          "name": "",
          "type": "uint32"
        }
      ],
      "stateMutability": "view",
      "type": "function"
    },
    {
      "inputs": [],
      "name": "deposit",
      "outputs": [],
      "stateMutability": "payable",
      "type": "function"
    },
    {
      "inputs": [
        {
          "internalType": "uint256",
          "name": "requestId",
          "type": "uint256"
        }
      ],
      "name": "fulfillGame",
      "outputs": [],
      "stateMutability": "nonpayable",
      "type": "function"
    },
    {
      "inputs": [
        {
          "internalType": "uint256",
          "name": "_requestId",
          "type": "uint256"
        }
      ],
      "name": "getRequestStatus",
      "outputs": [
        {
          "internalType": "bool",
          "name": "fulfilled",
          "type": "bool"
        },
        {
          "internalType": "uint256[]",
          "name": "randomWords",
          "type": "uint256[]"
        }
      ],
      "stateMutability": "view",
      "type": "function"
    },
    {
      "inputs": [],
      "name": "lastRequestId",
      "outputs": [
        {
          "internalType": "uint256",
          "name": "",
          "type": "uint256"
        }
      ],
      "stateMutability": "view",
      "type": "function"
    },
    {
      "inputs": [],
      "name": "owner",
      "outputs": [
        {
          "internalType": "address",
          "name": "",
          "type": "address"
        }
      ],
      "stateMutability": "view",
      "type": "function"
    },
    {
      "inputs": [
        {
          "internalType": "uint256",
          "name": "requestId",
          "type": "uint256"
        },
        {
          "internalType": "uint256[]",
          "name": "randomWords",
          "type": "uint256[]"
        }
      ],
      "name": "rawFulfillRandomWords",
      "outputs": [],
      "stateMutability": "nonpayable",
      "type": "function"
    },
    {
      "inputs": [
        {
          "internalType": "uint256",
          "name": "",
          "type": "uint256"
        }
      ],
      "name": "requestIds",
      "outputs": [
        {
          "internalType": "uint256",
          "name": "",
          "type": "uint256"
        }
      ],
      "stateMutability": "view",
      "type": "function"
    },
    {
      "inputs": [
        {
          "internalType": "uint256",
          "name": "",
          "type": "uint256"
        }
      ],
      "name": "s_requests",
      "outputs": [
        {
          "internalType": "bool",
          "name": "fulfilled",
          "type": "bool"
        },
        {
          "internalType": "bool",
          "name": "exists",
          "type": "bool"
        }
      ],
      "stateMutability": "view",
      "type": "function"
    },
    {
      "inputs": [
        {
          "internalType": "uint32",
          "name": "amount",
          "type": "uint32"
        }
      ],
      "name": "setCallGAS",
      "outputs": [],
      "stateMutability": "nonpayable",
      "type": "function"
    },
    {
      "inputs": [],
      "name": "startGame",
      "outputs": [],
      "stateMutability": "nonpayable",
      "type": "function"
    },
    {
      "inputs": [
        {
          "internalType": "address",
          "name": "to",
          "type": "address"
        }
      ],
      "name": "transferOwnership",
      "outputs": [],
      "stateMutability": "nonpayable",
      "type": "function"
    },
    {
      "inputs": [
        {
          "internalType": "uint256",
          "name": "amount",
          "type": "uint256"
        }
      ],
      "name": "withdraw",
      "outputs": [],
      "stateMutability": "nonpayable",
      "type": "function"
    }
  ],
  "bytecode": "0x60a06040527f4b09e658ed251bcafeebbc69400383d49f344ace09b9576fe248bb02c003fe9f60001b600655620186a0600760006101000a81548163ffffffff021916908363ffffffff1602179055506003600760046101000a81548161ffff021916908361ffff1602179055506001600760066101000a81548163ffffffff021916908363ffffffff16021790555033806000737a1bac17ccc5b313516c5e16fb24f7659aa5ebed8073ffffffffffffffffffffffffffffffffffffffff1660808173ffffffffffffffffffffffffffffffffffffffff168152505050600073ffffffffffffffffffffffffffffffffffffffff168273ffffffffffffffffffffffffffffffffffffffff16036200014f576040517f08c379a0000000000000000000000000000000000000000000000000000000008152600401620001469062000434565b60405180910390fd5b816000806101000a81548173ffffffffffffffffffffffffffffffffffffffff021916908373ffffffffffffffffffffffffffffffffffffffff160217905550600073ffffffffffffffffffffffffffffffffffffffff168173ffffffffffffffffffffffffffffffffffffffff1614620001d657620001d581620002a460201b60201c565b5b505050737a1bac17ccc5b313516c5e16fb24f7659aa5ebed600360006101000a81548173ffffffffffffffffffffffffffffffffffffffff021916908373ffffffffffffffffffffffffffffffffffffffff16021790555061103e600360146101000a81548167ffffffffffffffff021916908367ffffffffffffffff1602179055506064600860003373ffffffffffffffffffffffffffffffffffffffff1673ffffffffffffffffffffffffffffffffffffffff16815260200190815260200160002081905550620004c8565b3373ffffffffffffffffffffffffffffffffffffffff168173ffffffffffffffffffffffffffffffffffffffff160362000315576040517f08c379a00000000000000000000000000000000000000000000000000000000081526004016200030c90620004a6565b60405180910390fd5b80600160006101000a81548173ffffffffffffffffffffffffffffffffffffffff021916908373ffffffffffffffffffffffffffffffffffffffff1602179055508073ffffffffffffffffffffffffffffffffffffffff1660008054906101000a900473ffffffffffffffffffffffffffffffffffffffff1673ffffffffffffffffffffffffffffffffffffffff167fed8889f560326eb138920d842192f0eb3dd22b4f139c87a2c57538e05bae127860405160405180910390a350565b600082825260208201905092915050565b7f43616e6e6f7420736574206f776e657220746f207a65726f0000000000000000600082015250565b60006200041c601883620003d3565b91506200042982620003e4565b602082019050919050565b600060208201905081810360008301526200044f816200040d565b9050919050565b7f43616e6e6f74207472616e7366657220746f2073656c66000000000000000000600082015250565b60006200048e601783620003d3565b91506200049b8262000456565b602082019050919050565b60006020820190508181036000830152620004c1816200047f565b9050919050565b608051612112620004eb60003960008181610621015261067501526121126000f3fe6080604052600436106100e85760003560e01c80638796ba8c1161008a578063d65ab5f211610059578063d65ab5f2146102c0578063d8a4676f146102d7578063f2fde38b14610315578063fc2a88c31461033e576100e8565b80638796ba8c146102105780638da5cb5b1461024d578063a168fa8914610278578063d0e30db0146102b6576100e8565b80632e1a7d4d116100c65780632e1a7d4d1461016a5780635c0afae41461019357806370a08231146101bc57806379ba5097146101f9576100e8565b806305ace4d0146100ed5780631fe543e31461011657806324f746971461013f575b600080fd5b3480156100f957600080fd5b50610114600480360381019061010f91906114ff565b610369565b005b34801561012257600080fd5b5061013d60048036038101906101389190611685565b61061f565b005b34801561014b57600080fd5b506101546106df565b6040516101619190611700565b60405180910390f35b34801561017657600080fd5b50610191600480360381019061018c91906114ff565b6106f5565b005b34801561019f57600080fd5b506101ba60048036038101906101b59190611747565b6108cb565b005b3480156101c857600080fd5b506101e360048036038101906101de91906117d2565b6108ef565b6040516101f0919061180e565b60405180910390f35b34801561020557600080fd5b5061020e610938565b005b34801561021c57600080fd5b50610237600480360381019061023291906114ff565b610acd565b604051610244919061180e565b60405180910390f35b34801561025957600080fd5b50610262610af1565b60405161026f9190611838565b60405180910390f35b34801561028457600080fd5b5061029f600480360381019061029a91906114ff565b610b1a565b6040516102ad92919061186e565b60405180910390f35b6102be610b58565b005b3480156102cc57600080fd5b506102d5610bfe565b005b3480156102e357600080fd5b506102fe60048036038101906102f991906114ff565b610dff565b60405161030c929190611955565b60405180910390f35b34801561032157600080fd5b5061033c600480360381019061033791906117d2565b610f2a565b005b34801561034a57600080fd5b50610353610f3e565b604051610360919061180e565b60405180910390f35b610371610f44565b60006002600083815260200190815260200160002060010160008154811061039c5761039b611985565b5b906000526020600020015490506000600a600084815260200190815260200160002060009054906101000a900473ffffffffffffffffffffffffffffffffffffffff169050600960008273ffffffffffffffffffffffffffffffffffffffff1673ffffffffffffffffffffffffffffffffffffffff16815260200190815260200160002060009054906101000a900460ff1661046d576040517f08c379a000000000000000000000000000000000000000000000000000000000815260040161046490611a11565b60405180910390fd5b6004600a8361047c9190611a60565b111561052d576002600860008373ffffffffffffffffffffffffffffffffffffffff1673ffffffffffffffffffffffffffffffffffffffff16815260200190815260200160002060008282546104d29190611ac0565b925050819055508073ffffffffffffffffffffffffffffffffffffffff167f2124becafa895b5ac99ddd6101a1a85ec2b0732727f0ec735fd6c3a1a655cff460016040516105209190611b1a565b60405180910390a26105c2565b6000600860008373ffffffffffffffffffffffffffffffffffffffff1673ffffffffffffffffffffffffffffffffffffffff168152602001908152602001600020819055508073ffffffffffffffffffffffffffffffffffffffff167f2124becafa895b5ac99ddd6101a1a85ec2b0732727f0ec735fd6c3a1a655cff460006040516105b99190611b1a565b60405180910390a25b6000600960008373ffffffffffffffffffffffffffffffffffffffff1673ffffffffffffffffffffffffffffffffffffffff16815260200190815260200160002060006101000a81548160ff021916908315150217905550505050565b7f000000000000000000000000000000000000000000000000000000000000000073ffffffffffffffffffffffffffffffffffffffff163373ffffffffffffffffffffffffffffffffffffffff16146106d157337f00000000000000000000000000000000000000000000000000000000000000006040517f1cf993f40000000000000000000000000000000000000000000000000000000081526004016106c8929190611b35565b60405180910390fd5b6106db8282610fd4565b5050565b600760009054906101000a900463ffffffff1681565b600860003373ffffffffffffffffffffffffffffffffffffffff1673ffffffffffffffffffffffffffffffffffffffff16815260200190815260200160002054811115610777576040517f08c379a000000000000000000000000000000000000000000000000000000000815260040161076e90611baa565b60405180910390fd5b80600860003373ffffffffffffffffffffffffffffffffffffffff1673ffffffffffffffffffffffffffffffffffffffff16815260200190815260200160002060008282546107c69190611bca565b9250508190555060003373ffffffffffffffffffffffffffffffffffffffff16826040516107f390611c2f565b60006040518083038185875af1925050503d8060008114610830576040519150601f19603f3d011682016040523d82523d6000602084013e610835565b606091505b5050905080610879576040517f08c379a000000000000000000000000000000000000000000000000000000000815260040161087090611c90565b60405180910390fd5b3373ffffffffffffffffffffffffffffffffffffffff167f884edad9ce6fa2440d8a54cc123490eb96d2768479d49ff9c7366125a9424364836040516108bf919061180e565b60405180910390a25050565b80600760006101000a81548163ffffffff021916908363ffffffff16021790555050565b6000600860008373ffffffffffffffffffffffffffffffffffffffff1673ffffffffffffffffffffffffffffffffffffffff168152602001908152602001600020549050919050565b600160009054906101000a900473ffffffffffffffffffffffffffffffffffffffff1673ffffffffffffffffffffffffffffffffffffffff163373ffffffffffffffffffffffffffffffffffffffff16146109c8576040517f08c379a00000000000000000000000000000000000000000000000000000000081526004016109bf90611cfc565b60405180910390fd5b60008060009054906101000a900473ffffffffffffffffffffffffffffffffffffffff169050336000806101000a81548173ffffffffffffffffffffffffffffffffffffffff021916908373ffffffffffffffffffffffffffffffffffffffff1602179055506000600160006101000a81548173ffffffffffffffffffffffffffffffffffffffff021916908373ffffffffffffffffffffffffffffffffffffffff1602179055503373ffffffffffffffffffffffffffffffffffffffff168173ffffffffffffffffffffffffffffffffffffffff167f8be0079c531659141344cd1fd0a4f28419497f9722a3daafe3b4186f6b6457e060405160405180910390a350565b60048181548110610add57600080fd5b906000526020600020016000915090505481565b60008060009054906101000a900473ffffffffffffffffffffffffffffffffffffffff16905090565b60026020528060005260406000206000915090508060000160009054906101000a900460ff16908060000160019054906101000a900460ff16905082565b34600860003373ffffffffffffffffffffffffffffffffffffffff1673ffffffffffffffffffffffffffffffffffffffff1681526020019081526020016000206000828254610ba79190611d1c565b925050819055503373ffffffffffffffffffffffffffffffffffffffff167fe1fffcc4923d04b559f4d29a8bfc6cda04eb5b0d3c460751c2402c5c5cc9109c34604051610bf4919061180e565b60405180910390a2565b6000600860003373ffffffffffffffffffffffffffffffffffffffff1673ffffffffffffffffffffffffffffffffffffffff1681526020019081526020016000205411610c80576040517f08c379a0000000000000000000000000000000000000000000000000000000008152600401610c7790611d9c565b60405180910390fd5b600960003373ffffffffffffffffffffffffffffffffffffffff1673ffffffffffffffffffffffffffffffffffffffff16815260200190815260200160002060009054906101000a900460ff1615610d0d576040517f08c379a0000000000000000000000000000000000000000000000000000000008152600401610d0490611e08565b60405180910390fd5b6000610d176110ce565b905033600a600083815260200190815260200160002060006101000a81548173ffffffffffffffffffffffffffffffffffffffff021916908373ffffffffffffffffffffffffffffffffffffffff1602179055506001600960003373ffffffffffffffffffffffffffffffffffffffff1673ffffffffffffffffffffffffffffffffffffffff16815260200190815260200160002060006101000a81548160ff0219169083151502179055507ffadb9547847a0c2c31f4c02590545e318d33d7aae99071caecf3fa4ce3cd7dca8133604051610df4929190611e28565b60405180910390a150565b600060606002600084815260200190815260200160002060000160019054906101000a900460ff16610e66576040517f08c379a0000000000000000000000000000000000000000000000000000000008152600401610e5d90611e9d565b60405180910390fd5b6000600260008581526020019081526020016000206040518060600160405290816000820160009054906101000a900460ff161515151581526020016000820160019054906101000a900460ff1615151515815260200160018201805480602002602001604051908101604052809291908181526020018280548015610f0b57602002820191906000526020600020905b815481526020019060010190808311610ef7575b5050505050815250509050806000015181604001519250925050915091565b610f32610f44565b610f3b8161131f565b50565b60055481565b60008054906101000a900473ffffffffffffffffffffffffffffffffffffffff1673ffffffffffffffffffffffffffffffffffffffff163373ffffffffffffffffffffffffffffffffffffffff1614610fd2576040517f08c379a0000000000000000000000000000000000000000000000000000000008152600401610fc990611f09565b60405180910390fd5b565b6002600083815260200190815260200160002060000160019054906101000a900460ff16611037576040517f08c379a000000000000000000000000000000000000000000000000000000000815260040161102e90611e9d565b60405180910390fd5b60016002600084815260200190815260200160002060000160006101000a81548160ff0219169083151502179055508060026000848152602001908152602001600020600101908051906020019061109092919061144b565b507ffe2e2d779dba245964d4e3ef9b994be63856fd568bf7d3ca9e224755cb1bd54d82826040516110c2929190611f29565b60405180910390a15050565b6000600360009054906101000a900473ffffffffffffffffffffffffffffffffffffffff1673ffffffffffffffffffffffffffffffffffffffff16635d3b1d30600654600360149054906101000a900467ffffffffffffffff16600760049054906101000a900461ffff16600760009054906101000a900463ffffffff16600760069054906101000a900463ffffffff166040518663ffffffff1660e01b815260040161117f959493929190611fb2565b6020604051808303816000875af115801561119e573d6000803e3d6000fd5b505050506040513d601f19601f820116820180604052508101906111c2919061201a565b90506040518060600160405280600015158152602001600115158152602001600067ffffffffffffffff8111156111fc576111fb611542565b5b60405190808252806020026020018201604052801561122a5781602001602082028036833780820191505090505b508152506002600083815260200190815260200160002060008201518160000160006101000a81548160ff02191690831515021790555060208201518160000160016101000a81548160ff021916908315150217905550604082015181600101908051906020019061129d92919061144b565b509050506004819080600181540180825580915050600190039060005260206000200160009091909190915055806005819055507fcc58b13ad3eab50626c6a6300b1d139cd6ebb1688a7cced9461c2f7e762665ee81600760069054906101000a900463ffffffff16604051611314929190612047565b60405180910390a190565b3373ffffffffffffffffffffffffffffffffffffffff168173ffffffffffffffffffffffffffffffffffffffff160361138d576040517f08c379a0000000000000000000000000000000000000000000000000000000008152600401611384906120bc565b60405180910390fd5b80600160006101000a81548173ffffffffffffffffffffffffffffffffffffffff021916908373ffffffffffffffffffffffffffffffffffffffff1602179055508073ffffffffffffffffffffffffffffffffffffffff1660008054906101000a900473ffffffffffffffffffffffffffffffffffffffff1673ffffffffffffffffffffffffffffffffffffffff167fed8889f560326eb138920d842192f0eb3dd22b4f139c87a2c57538e05bae127860405160405180910390a350565b828054828255906000526020600020908101928215611487579160200282015b8281111561148657825182559160200191906001019061146b565b5b5090506114949190611498565b5090565b5b808211156114b1576000816000905550600101611499565b5090565b6000604051905090565b600080fd5b600080fd5b6000819050919050565b6114dc816114c9565b81146114e757600080fd5b50565b6000813590506114f9816114d3565b92915050565b600060208284031215611515576115146114bf565b5b6000611523848285016114ea565b91505092915050565b600080fd5b6000601f19601f8301169050919050565b7f4e487b7100000000000000000000000000000000000000000000000000000000600052604160045260246000fd5b61157a82611531565b810181811067ffffffffffffffff8211171561159957611598611542565b5b80604052505050565b60006115ac6114b5565b90506115b88282611571565b919050565b600067ffffffffffffffff8211156115d8576115d7611542565b5b602082029050602081019050919050565b600080fd5b60006116016115fc846115bd565b6115a2565b90508083825260208201905060208402830185811115611624576116236115e9565b5b835b8181101561164d578061163988826114ea565b845260208401935050602081019050611626565b5050509392505050565b600082601f83011261166c5761166b61152c565b5b813561167c8482602086016115ee565b91505092915050565b6000806040838503121561169c5761169b6114bf565b5b60006116aa858286016114ea565b925050602083013567ffffffffffffffff8111156116cb576116ca6114c4565b5b6116d785828601611657565b9150509250929050565b600063ffffffff82169050919050565b6116fa816116e1565b82525050565b600060208201905061171560008301846116f1565b92915050565b611724816116e1565b811461172f57600080fd5b50565b6000813590506117418161171b565b92915050565b60006020828403121561175d5761175c6114bf565b5b600061176b84828501611732565b91505092915050565b600073ffffffffffffffffffffffffffffffffffffffff82169050919050565b600061179f82611774565b9050919050565b6117af81611794565b81146117ba57600080fd5b50565b6000813590506117cc816117a6565b92915050565b6000602082840312156117e8576117e76114bf565b5b60006117f6848285016117bd565b91505092915050565b611808816114c9565b82525050565b600060208201905061182360008301846117ff565b92915050565b61183281611794565b82525050565b600060208201905061184d6000830184611829565b92915050565b60008115159050919050565b61186881611853565b82525050565b6000604082019050611883600083018561185f565b611890602083018461185f565b9392505050565b600081519050919050565b600082825260208201905092915050565b6000819050602082019050919050565b6118cc816114c9565b82525050565b60006118de83836118c3565b60208301905092915050565b6000602082019050919050565b600061190282611897565b61190c81856118a2565b9350611917836118b3565b8060005b8381101561194857815161192f88826118d2565b975061193a836118ea565b92505060018101905061191b565b5085935050505092915050565b600060408201905061196a600083018561185f565b818103602083015261197c81846118f7565b90509392505050565b7f4e487b7100000000000000000000000000000000000000000000000000000000600052603260045260246000fd5b600082825260208201905092915050565b7f4e6f7420706c6179696e67000000000000000000000000000000000000000000600082015250565b60006119fb600b836119b4565b9150611a06826119c5565b602082019050919050565b60006020820190508181036000830152611a2a816119ee565b9050919050565b7f4e487b7100000000000000000000000000000000000000000000000000000000600052601260045260246000fd5b6000611a6b826114c9565b9150611a76836114c9565b925082611a8657611a85611a31565b5b828206905092915050565b7f4e487b7100000000000000000000000000000000000000000000000000000000600052601160045260246000fd5b6000611acb826114c9565b9150611ad6836114c9565b9250817fffffffffffffffffffffffffffffffffffffffffffffffffffffffffffffffff0483118215151615611b0f57611b0e611a91565b5b828202905092915050565b6000602082019050611b2f600083018461185f565b92915050565b6000604082019050611b4a6000830185611829565b611b576020830184611829565b9392505050565b7f496e73756666696369656e742062616c616e6365000000000000000000000000600082015250565b6000611b946014836119b4565b9150611b9f82611b5e565b602082019050919050565b60006020820190508181036000830152611bc381611b87565b9050919050565b6000611bd5826114c9565b9150611be0836114c9565b9250828203905081811115611bf857611bf7611a91565b5b92915050565b600081905092915050565b50565b6000611c19600083611bfe565b9150611c2482611c09565b600082019050919050565b6000611c3a82611c0c565b9150819050919050565b7f5472616e73666572206661696c65640000000000000000000000000000000000600082015250565b6000611c7a600f836119b4565b9150611c8582611c44565b602082019050919050565b60006020820190508181036000830152611ca981611c6d565b9050919050565b7f4d7573742062652070726f706f736564206f776e657200000000000000000000600082015250565b6000611ce66016836119b4565b9150611cf182611cb0565b602082019050919050565b60006020820190508181036000830152611d1581611cd9565b9050919050565b6000611d27826114c9565b9150611d32836114c9565b9250828201905080821115611d4a57611d49611a91565b5b92915050565b7f556e73756666696369656e742062616c616e6365000000000000000000000000600082015250565b6000611d866014836119b4565b9150611d9182611d50565b602082019050919050565b60006020820190508181036000830152611db581611d79565b9050919050565b7f416c726561647920706c6179696e670000000000000000000000000000000000600082015250565b6000611df2600f836119b4565b9150611dfd82611dbc565b602082019050919050565b60006020820190508181036000830152611e2181611de5565b9050919050565b6000604082019050611e3d60008301856117ff565b611e4a6020830184611829565b9392505050565b7f72657175657374206e6f7420666f756e64000000000000000000000000000000600082015250565b6000611e876011836119b4565b9150611e9282611e51565b602082019050919050565b60006020820190508181036000830152611eb681611e7a565b9050919050565b7f4f6e6c792063616c6c61626c65206279206f776e657200000000000000000000600082015250565b6000611ef36016836119b4565b9150611efe82611ebd565b602082019050919050565b60006020820190508181036000830152611f2281611ee6565b9050919050565b6000604082019050611f3e60008301856117ff565b8181036020830152611f5081846118f7565b90509392505050565b6000819050919050565b611f6c81611f59565b82525050565b600067ffffffffffffffff82169050919050565b611f8f81611f72565b82525050565b600061ffff82169050919050565b611fac81611f95565b82525050565b600060a082019050611fc76000830188611f63565b611fd46020830187611f86565b611fe16040830186611fa3565b611fee60608301856116f1565b611ffb60808301846116f1565b9695505050505050565b600081519050612014816114d3565b92915050565b6000602082840312156120305761202f6114bf565b5b600061203e84828501612005565b91505092915050565b600060408201905061205c60008301856117ff565b61206960208301846116f1565b9392505050565b7f43616e6e6f74207472616e7366657220746f2073656c66000000000000000000600082015250565b60006120a66017836119b4565b91506120b182612070565b602082019050919050565b600060208201905081810360008301526120d581612099565b905091905056fea2646970667358221220e1b57fb62f4b0c577854976bfd9f20c5ba05d626d415a1b54960106ea5be917564736f6c63430008100033",
  "linkReferences": {},
  "deployedLinkReferences": {}
}